:100000000C942A000C9434000C9434000C943400AA
:100010000C9434000C9434000C9434000C94340090
:100020000C9434000C9434000C9434000C94340080
:100030000C9434000C9434000C9434000C94340070
:100040000C9434000C9434000C9434000C94340060
:100050000C94340011241FBECFE5D4E0DEBFCDBF29
:100060000E9436000C9450000C94000080E881BB84
:1000700080EC82BB20E931E010C0979880ED97E0DA
:10008000F9013197F1F70197D9F7979A80ED97E049
:10009000F9013197F1F70197D9F78699FECFEDCFA6
:0400A000F894FFCF02
:00000001FF
