:103800000C94681C0C94A01C0C94851C0C94851CB6
:103810000C94851C0C94851C0C94B81D0C94851C70
:103820000C94851C0C94851C0C94851C0C94851C94
:103830000C94851C0C94851C0C94851C0C94851C84
:103840000C94851C0C94851C0C94851C0C94851C74
:103850000C94851C0403090412036F0062006400C9
:10386000650076002E0061007400100348004900D6
:10387000440042006F006F0074001201100100004C
:103880000008C016DF050001010200010902220044
:103890000101008032090400000103000000092139
:1038A00001010001222100070581030800C806006C
:1038B000FF0901A101150026FF0075088501950685
:1038C0000900B20201850295830900B20201C0001D
:1038D00011241FBECFE5D4E0DEBFCDBF10E0A0E6CF
:1038E000B0E0E6ECFFE302C005900D92AA36B10706
:1038F000D9F710E0AAE6B0E001C01D92AC39B107DB
:10390000E1F70E94D11D0C94E11F0C94001CA82F1C
:10391000B92F80E090E041E050EA60956F5F58F485
:103920002D9138EF82279795879510F0842795275A
:103930003F5FC8F3F3CF0895EADF8D939D93089519
:10394000CF93CFB7CF93DF93C395839BE9F7839B47
:103950000BC0839B09C0839B07C0839B05C0839BCF
:1039600003C0839B01C08BC06F93C0917F00DD2794
:10397000CA57DF4F2F9365E5839B03C02F916F914B
:10398000E6CF0F931F934F9320E040E15F9300B386
:103990000C7003FB27F93F9350E03BE039C01C70EB
:1039A00040642F77012F53501EC0406810B31C7025
:1039B0002F7753501FC0406400B32F770C70D1F1A4
:1039C0005350000023C0406210B32F771C7091F158
:1039D0005350000025C00C701027515012F45D5F49
:1039E0000000115027952C3F10B3C8F61C7001271A
:1039F000015027952C3FC8F64227499300B30C701D
:103A000010274F73115027952C3FA8F646954695E1
:103A100010B31C7079F00127015027952C3F98F6C0
:103A20006B5A60F3315000B3B0F600C010E41ABF17
:103A3000002719C03B503195C31BD04010E41ABF7A
:103A40000881033C09F10B34F9F020917D001981C4
:103A5000110F1213EDCF4A81441F093651F10D3277
:103A600011F0013E29F7009384003F915F914F913F
:103A70001F910F912F916F91CAB7C6FD65CFDF914E
:103A8000CF91CFBFCF91189520918400222369F365
:103A900010918200112349F534304AF130938200AD
:103AA00020937E0010917F003BE0311B30937F001C
:103AB0001EC0009182000130C4F40AE54F70A9F4E1
:103AC0003091600034FD14C000936000C2E7D0E084
:103AD00013C0052710E000C0000002BB1AC0052774
:103AE00010E0221F1DC010E021C04AE502C032EDE7
:103AF000432FC4E1D0E032E011B31C60939A02B3CB
:103B000011BB5CE020E865E320FF052702BB279599
:103B100017951C3FF0F66695B8F7B1F720FF05271B
:103B200002BB279517951C3FD0F62795179517FFD1
:103B3000052700001C3F02BBB0F629913A9519F702
:103B4000037F10918300110FC651D04002BB11F0CA
:103B500010937D0010E41ABF086011B3137F402F4B
:103B6000437F54E05A95F1F702BB11BB42BB7DCFB6
:103B70001F920F920FB60F9211248F9382B3805829
:103B800082BB80916F00815080936F00882319F46D
:103B900081E080936E008F910F900FBE0F901F9069
:103BA00018952F923F924F925F926F927F928F92D1
:103BB0009F92AF92BF92CF92DF92EF92FF920F93BC
:103BC0001F93DF93CF9300D000D0CDB7DEB78E9890
:103BD000969A85E38A95F1F78F9A979A84E1809374
:103BE0006F001FBC8CE08EBD82E19AE79BBD8ABD51
:103BF00089B7806189BF869BC9C181E08BBF82E0A4
:103C00008BBF85B7836085BF8BB780648BBF8B9A72
:103C100020E040EA5FE0A895CA010197F1F7215042
:103C2000D1F78B987894FF2400E06AE5E62E5AE6F7
:103C3000652E58E3752E48E5442E48E3542E34E5AE
:103C4000232E38E3332E2EEEC22E2FEFD22E2EE966
:103C500038E3C20ED31E9AE7A92E98E3B92E82E666
:103C6000882E80E0982EA89590918200292F2350CD
:103C700027FD2AC180917F004CE050E0481B51098C
:103C80004A575F4F5C834B8380917E008D3209F0F1
:103C9000B4C0283009F016C153EC50937200E09282
:103CA000600010926A00AB81BC812C91822F8076DB
:103CB00011969C9111978823C9F0993071F412964E
:103CC0008C91823031F410926D0027FD85C09FEFFA
:103CD00087C0B1E0B0936E006CC1913009F069C14A
:103CE000909281008092800027E064C1EB81FC818A
:103CF000828110927B00992331F410927C008BE733
:103D000090E022E064C0953019F4809383005CC099
:103D1000963009F049C0AB81BC8113968C918130FB
:103D200029F4B0928100A09280001BC0823031F44F
:103D3000D0928100C092800022E232C08330D9F458
:103D4000EB81FC818281882331F4309281002092C2
:103D5000800024E025C0813031F4509281004092EF
:103D6000800022E11DC08230D1F470928100609207
:103D7000800020E115C0813241F42EE938E3309310
:103D800081002093800029E00BC0823241F44EEA8A
:103D900058E3509381004093800021E201C020E06D
:103DA00050E450936A0006C1983019F485E890E019
:103DB00009C0993019F48093850006C09A3021F427
:103DC0008BE790E021E003C08BE790E020E0909348
:103DD000810080938000EEC0AB81BC8116969C91DF
:103DE00080E880936A0006C0EB81FC81968192177F
:103DF00008F0922F9093610065C080916A0087FF60
:103E000061C0F4E1F0936F0040916B0050916C0041
:103E10005A83498380916D00882389F4AB81BC81EA
:103E20001196BC91B983EB81FC81F281FA832B81DD
:103E30003C812C5F3F4F3C832B83292F2750322F0F
:103E4000380F30936D0089818F7759F4F89443E0EF
:103E5000E981FA8140935700E895789407B600FC11
:103E6000FDCFF89449815A81AB81BC818D919C91A1
:103E700061E0FA010C0160935700E89511247894F1
:103E80003296FA83E98389818F7751F4F89465E05B
:103E9000FA0160935700E895789407B600FCFDCFCF
:103EA000225031F08B819C8102969C838B83CBCFF7
:103EB000A981BA81B0936C00A0936B0037FF02C058
:103EC00010926100109282008091600084FF4AC0CD
:103ED000809161008F3F09F445C0182F893008F0A8
:103EE00018E0811B809361008091720098E8892717
:103EF00080937200112341F1209180003091810064
:103F000080916A0086FF0DC0A3E7B0E080E090E0FA
:103F1000F901E80FF91FE491ED9301961817C1F725
:103F200008C0D901912FE3E7F0E08D918193915082
:103F3000E1F71150812F90E01F5F0196820F931FD0
:103F4000909381008093800083E790E0612F0E942E
:103F50009C1C612F6C5F6C3019F08FEF80936100B7
:103F60006093600094E180B38C7031F49150D9F784
:103F70001092830010927D0080916E00882321F0C2
:103F8000FA9411F4015011F086996DCEF89481E104
:103F900080935700E8951BBE15BE81E08BBF1BBE0A
:103FA00097981FBC1EBC19BEE0917000F091710083
:103FB000099520E0EB81FC818781882309F414CFE7
:063FC00018CFF894FFCFBA
:0A3FC6005AFF0180000040000000D7
:0400000300003800C1
:00000001FF
